:020000040800F2
:10000000481000209D010008530E0008890D0008CB
:10001000510E0008E50100083B1200080000000036
:10002000000000000000000000000000790E000841
:10003000E701000800000000770E00087B0E0008B2
:10004000B7010008B7010008B7010008B7010008B0
:10005000B7010008B7010008B7010008B7010008A0
:10006000B7010008B7010008B7010008B701000890
:10007000B7010008B7010008B7010008B701000880
:10008000B7010008B7010008B7010008B701000870
:10009000B7010008B7010008B7010008B701000860
:1000A000B7010008B7010008B7010008B701000850
:1000B000B7010008B7010008B7010008B701000840
:1000C000B7010008B7010008B7010008B701000830
:1000D000B7010008B7010008B7010008B701000820
:1000E000B7010008B7010008B7010008B701000810
:1000F000B7010008B7010008B7010008B701000800
:10010000B7010008B7010008B7010008B7010008EF
:10011000B7010008B7010008B7010008B7010008DF
:10012000B7010008B7010008B7010008B7010008CF
:10013000B7010008B7010008B7010008B7010008BF
:10014000B7010008B7010008B7010008B7010008AF
:10015000B7010008B7010008B7010008B70100089F
:10016000B7010008B7010008B7010008B70100088F
:10017000B7010008B7010008B7010008000000003F
:10018000B7010008B7010008DFF80CD000F018F83C
:10019000004800475D1200084810002006488047CC
:1001A00006480047FEE7FEE7FEE7FEE7FEE7FEE75C
:1001B000FEE7FEE7FEE7FEE7250F000889010008DD
:1001C000064C074D06E0E06840F0010394E80700A4
:1001D00098471034AC42F6D3FFF7DAFFD412000888
:1001E000F4120008FEE7704731B500F0E3F8009C18
:1001F0000546601C00D0641C00F0DCF8401BA042E7
:10020000FAD338BD2DE9F84FDFF87CB100224FF06A
:1002100001084FF0030A4FF00F090BF1040E00BF65
:100220000B6808FA02F42340A3426ED14D68022DF8
:1002300001D0122D0ED1D50800EB850CDCF8205032
:100240005607F70E09FA07F6B5430E69BE402E436E
:10025000CCF82060066855000F790AFA05FC07F013
:10026000030726EA0C06AF40374307604E68012EAD
:1002700005D0022E03D0112E01D0122E0ED1866889
:10028000CF6826EA0C06AF40374387604668A6432E
:100290000C79C4F30014944034434460C6688C68FD
:1002A00026EA0C06AC403443C4604C68E40065D5D3
:1002B000364C256845F480452560246822F0030506
:1002C00004F480440094324C2E19D6F8084895075F
:1002D0002F0F09FA07F5AC432E4DA84201D1002596
:1002E00024E02D4DA84201D101251FE02B4DA8424D
:1002F00001D102251AE02A4DA84201D1032515E0BB
:10030000284DA84202D1042510E037E0264DA8422E
:1003100001D105250AE0254DA84201D1062505E0B9
:10032000234DA84201D1072500E00825BD40254303
:10033000C6F80858DBF800405D464E689C43F6035B
:1003400000D51C432C60DEF8004075464E689C4387
:10035000B60300D51C432C600B4D08352C684E6845
:100360009C43F60200D51C432C60074D0C352C68CD
:100370004E689C43B60200D51C432C60521C102AC8
:10038000FFF44EAFBDE8F88F003C01404438024016
:10039000003001400000024000040240000802401A
:1003A000000C0240001002400014024000180240FD
:1003B000001C024001480068704700000000002057
:1003C00002480168491C01607047000000000020DD
:1003D0000B4810B5016841F400710160016841F4F7
:1003E00080610160016841F480710160032000F0C8
:1003F00069F8002000F006F800F018F8002010BDA1
:10040000003C024010B5044607484FF47A7100687A
:10041000B0FBF1F000F011FB00222146501E00F06D
:1004200031F8002010BD00000400002010B50320AA
:1004300000F048F8002211466FF00B0000F022F89F
:10044000002211466FF00A0000F01CF8002211464D
:100450006FF0090000F016F800221146501F00F05E
:1004600011F800221146101F00F00CF8002211466E
:10047000901E00F007F80022BDE810401146501E03
:10048000AFF30080F0B40E4B1B680C46C3F302239D
:10049000C3F10705042D00D90425191D072901D230
:1004A000002300E0DB1E012606FA05F1491E21406B
:1004B00099409E40761E16403143F0BC00F0CBBC04
:1004C0000CED00E0064900F0070208684FF6FF0354
:1004D000184040EA0220034A1043086070470000B9
:1004E0000CED00E00000FA05704700002DE9F04730
:1004F000DFF8649105460F46D9F8000000F00F01BF
:10050000F8B28046B94208D2014689F80010D9F8FD
:10051000000000F00F00B84274D128784F4C8007DB
:1005200005D52068A96820F0F000084320602878ED
:10053000C00759D049496868083901281AD00228EB
:100540001BD0032819D00968890700295ADA2168C5
:1005500021F0030101432160FFF72CFF6968064683
:1005600041F28830012911D002291DD00329824689
:1005700027D035E009688903E7E709688901E4E7DE
:10058000FFF718FF811B514501D926E082462068FC
:10059000C0F381000128F3D126E000BFFFF70AFF76
:1005A000811B514501D918E082462068C0F38100C3
:1005B0000228F3D118E000BFFFF7FCFE811B514574
:1005C0000BD82068C0F381000328F5D10CE000BFF0
:1005D000FFF7F0FE811B514502D90320BDE8F087EB
:1005E000206810F00C0FF3D1D9F80010484601F044
:1005F0000F01B94208D980F80080006800F00F00B0
:10060000B84201D00120E9E72878400705D52068E5
:10061000E96820F4E050084320602878000706D5F8
:100620002068296920F4604040EAC100206000F0A1
:1006300027F82168F02292FAA2F201F0F001B2FA52
:1006400082F2D140064A515CC84006490860002049
:10065000FFF7D8FE0020C1E7003C02400838024006
:10066000C41200080400002001490120C86470473A
:100670000000474201480068704700000400002065
:1006800030B51948006810F00C01184812D0441019
:1006900004290ED008290DD11349091F0A6802F058
:1006A0003F030A68550247F6C07204D5B4FBF3F065
:1006B00003E0204630BDB0FBF3F00B68096813403F
:1006C00092FAA2F2B2FA82F2D34058434FF4403287
:1006D00092FAA2F201F44031B2FA82F2D140491CFE
:1006E0004900B0FBF1F030BD083802400024F400AE
:1006F000054810B50068000605D5FFF7F5FE02496C
:100700008020891C087010BD0C3802402DE9F84F7C
:100710000546DFF8FC920078A9F1040BC007ABF1A5
:10072000040449D0D9F800104846C1F381010129D9
:1007300008D00068C0F3810002280AD1DBF800006D
:10074000400206D52068800336D5686800286ED040
:1007500032E06868B0F5803F10D0B0F5A02F206877
:1007600010D020F480302060206820F480202060A9
:100770006868A0B1FFF71EFE06460CE0206840F452
:100780008030F4E740F480202060F7E7FFF712FEA6
:10079000801B642871D820688003F7D50CE0FFF730
:1007A00009FE064605E000BFFFF704FE801B642833
:1007B000F0D820688003F7D42878964F80074FF050
:1007C000010A4FF0000841D5D9F80010484611F051
:1007D0000C0F08D00068C0F3810002280AD1DBF8B2
:1007E0000000400206D42068800713D5E86801287D
:1007F0001DD10FE0E868D8B1C7F800A0FFF7DAFD17
:10080000064604E0FFF7D6FD801B0228C2D8206808
:100810008007F7D52068F82292FAA2F22969B2FA85
:1008200082F220F0F8009140084320600EE0ECE0F6
:10083000C7F80080FFF7BEFD064604E0FFF7BAFDEB
:10084000801B022819D820688007F7D42878000771
:1008500024D57148696989B1C0F800A0FFF7AAFDE5
:10086000064604E0FFF7A6FD801B022805D868486D
:100870006C3000688007F5D510E07AE0C0F80080A1
:10088000FFF798FD064604E0FFF794FD801B022861
:100890006FD85F486C3000688007F5D4287840072F
:1008A00053D55B483830016841F0805101600068E1
:1008B00000F0805000905948016841F48071016057
:1008C000FFF778FD064604E0FFF774FD801B022861
:1008D0004FD852480068C005F6D54D4EA868683616
:1008E00001280FD00528306810D020F001003060BA
:1008F000306820F004003060A868B8B1FFF75AFDF6
:1009000000900FE0306840F00100F4E740F0040090
:100910003060F7E7FFF74EFD0099411A41F2883049
:1009200081426AD830688007F4D50EE0FFF742FDB7
:10093000009007E0FFF73EFD0099411A41F2883030
:1009400081425AD830688007F4D4A869E8B3D9F84E
:100950000010C1F38101022957D00228C7F8608036
:1009600003D0FFF727FD05464AE0FFF723FD0646C3
:1009700005E042E0FFF71EFD801B02283DD82068FD
:100980008001F7D4D5E90701084347F6C07292FA0F
:10099000A2F2696AB2FA82F29140AA6A4FF0FF337A
:1009A00003EB52024FF4403393FAA3F3B3FA83F309
:1009B0009A40114308434FF0706292FAA2F2E96A3A
:1009C000B2FA82F29140084300E01CE0CBF800004C
:1009D000C7F860A0FFF7EEFC054604E0FFF7EAFC6D
:1009E000401B022809D820688001F7D50BE000BF22
:1009F000FFF7E0FC401B022802D90320BDE8F88F76
:100A000020688001F4D40020F8E70120F6E7000018
:100A10000838024000004742800E47420070004004
:100A20004FF0E0210428086903D020F00400086199
:100A3000704740F00400FAE7704710B5401EB0F16F
:100A4000807F01D3012010BD4FF0E02460610F21B1
:100A5000601700F000FA0020A0610720206100204C
:100A600010BD10B5FFF7E8FF10BD30B590F8382085
:100A7000012A20D0012280F83820022380F8393062
:100A800003685C6824F070045C6003685C680D684F
:100A90002C435C6003689C6824F080049C600368BD
:100AA0009C6849680C439C6080F83920002180F8DC
:100AB0003810084630BD022030BD10B5044600682D
:100AC000042200F0C4FA2068416C41F40041416402
:100AD0002068016841F001010160002010BD10B5DF
:100AE000040003D094F8390010B107E0012010BDD4
:100AF000002084F83800204600F00CF8022084F82A
:100B00003900211D206800F037FA012084F83900EF
:100B1000002010BD08B500680649884208D1064883
:100B2000016841F001010160006800F001000090DF
:100B300008BD00000000014044380240022180F856
:100B4000391001680A6842F001020A60012180F848
:100B500039100020704770B5044690F8380001281D
:100B600017D0012584F83850022084F83900206815
:100B7000826822F0770222F47F428260086850285F
:100B800037D00DDC202859D005DC88B3102841D19E
:100B900051E0022070BD302853D040283AD13FE0C8
:100BA00060282ED070280BD0B0F5805F03D0B0F550
:100BB000005F2FD110E02068816821F0070115E067
:100BC000CB68D1E90121206800F04CFA21688868DF
:100BD00040F0770088601DE0CB68D1E901212068F2
:100BE00000F040FA2068816841F48041816011E0A2
:100BF0001EE0CA684968206800F0FCFA50212068AD
:100C000006E0CA684968206800F005FB602120689A
:100C100000F032FA84F83950002084F8380070BDB2
:100C2000CA684968206800F0E5FA40212068EFE7CB
:100C300000212068ECE710212068E9E720212068E6
:100C4000E6E730212068E3E770B5044690F8380005
:100C50000D4601280DD0012684F83860022084F862
:100C6000390042B1042A18D0082A2AD00C2A4DD1C2
:100C700039E0022070BD206800F006FA2068816922
:100C800041F0080181612068816921F004018161DE
:100C9000206881692A69114311E0206800F020FA78
:100CA0002068816941F4006181612068816921F4D3
:100CB00080618161206881692A6941EA022181613C
:100CC00024E0206800F03EFA2068C16941F0080184
:100CD000C1612068C16921F00401C1612068C16956
:100CE0002A69114311E0206800F05CFA2068C169AC
:100CF00041F40061C1612068C16921F48061C16172
:100D00002068C1692A6941EA0221C16184F8396019
:100D1000002084F8380070BD10B5040003D094F8AA
:100D2000390010B107E0012010BD002084F8380020
:100D3000204600F00CF8022084F83900211D2068BC
:100D400000F01AF9012084F83900002010BD704726
:100D500010B504460068012200F06EF908492068C9
:100D6000884202D00749884203D1416C41F40041D6
:100D700041642068016841F001010160002010BD5C
:100D80000000014000040140FEE7000010B52A48C1
:100D900094B00024016841F001010160016801F094
:100DA00001011291016841F002010160006807A988
:100DB00000F0020012904FF480700790022008901B
:100DC0000A9001200B901D48FFF71CFA4FF40050C9
:100DD000079007A91A48FFF715FA1B48194901603F
:100DE0000B21C0E9011440F2E731C0E9031444616A
:100DF000FFF775FE4FF480500C900CA91248FFF7D6
:100E0000AAFE1148FFF788FF109410A90E4811940C
:100E1000FFF72BFE602000900C480088CDE901040C
:100E20000394049405940022694607480694FFF74A
:100E30000BFF14B010BD000030380240000002402B
:100E400000040240000001400C00002008000020C7
:100E5000FEE7FFF74DBC0907090E002806DA00F08F
:100E60000F0000F1E02080F8141D704700F1E02031
:100E700080F8001470477047704710B5FFF7A0FA6C
:100E8000BDE81040FFF7EDBD30B5244893B0002514
:100E9000016841F080510160006800F080501190BD
:100EA0001F48016841F4804101600068022400F499
:100EB0008040119001200090000401908001CDE954
:100EC0000640082008904FF4A870CDE909040720D7
:100ED0000B906846FFF71AFC0CA90F2081E831003F
:100EE0004FF4A0500F90E002109005210CA8FFF7DE
:100EF000FDFAFFF7B9FBFFF7BDFB4FF47A71B0FBCA
:100F0000F1F0FFF79AFD0420FFF78AFD0022114659
:100F1000501EFFF7B7FA13B030BD00004038024052
:100F2000007000401048016841F4700101600F48F2
:100F3000016841F0010101600C4A00210832116092
:100F400002680B4B1A400260031D0A4A1A600268CD
:100F500022F48022026005480C30016002495806E4
:100F6000803908607047000088ED00E000380240DA
:100F7000FFFFF6FE10300024F0B50268234B244D2D
:100F8000244E254F254C4FF0804C984209D06045A7
:100F900007D0A84205D0B04203D0B84201D0A04249
:100FA00004D122F0700E4A6842EA0E0298421BD029
:100FB000604519D0A84217D0B04215D0B84213D01E
:100FC000A04211D0164DA8420ED0164DA8420BD00B
:100FD000154DA84208D0154DA84205D0144DA84281
:100FE00002D0144DA84203D122F44075CA682A43A6
:100FF00002608A68C2620A688262984201D0A04296
:1010000001D10969016301214161F0BD0000014086
:101010000004004000080040000C004000040140B3
:1010200000400140004401400048014000180040D9
:10103000001C00400020004010B50123046A8B40D2
:101040009C430462036A8A401343036210BD10B5D7
:101050000423046A8B409C430462036A8A4013435E
:10106000036210BD10B5846842EA032224F47F4471
:101070000A432243826010BD826822F070020A4354
:1010800042F007018160704730B5026A22F0010228
:101090000262026A436884690D6824F07304254380
:1010A00022F002048A6822430B4CA04202D00B4C6F
:1010B000A0420BD122F00804CA6823F440732243F3
:1010C0004C6922F004021C438B6923434360856111
:1010D00049684163026230BD0000014000040140E4
:1010E00030B5026A22F010020262026A4368846923
:1010F0000D6824F4E64444EA05248D6822F02002B9
:1011000042EA05120D4DA84202D00D4DA8420ED163
:10111000CD6822F0800242EA05124D6923F4406353
:1011200043EA85038D6922F0400243EA8503436068
:10113000846149688163026230BD000000000140A3
:101140000004014030B5026A22F480720262036A30
:101150004268C46923F4007324F073050C682C43BF
:101160008D6843EA05230D4DA84202D00C4DA842DC
:101170000ED1CD6823F4006343EA05234D6922F4C0
:10118000405242EA05128D6923F4806342EA051257
:101190004260C4614968C163036230BD0000014020
:1011A0000004014030B5026A22F480520262046AEF
:1011B0004268C3690D6823F4E64343EA05238D685A
:1011C00024F4005444EA0534084DA84202D0084DE6
:1011D000A84204D14D6922F4804242EA851242605D
:1011E000C36149680164046230BD00000000014031
:1011F0000004014010B5036A046A24F0010404628B
:10120000846924F0F00444EA021423F00A020A4339
:101210008461026210BD10B5036A23F010030362FB
:101220008369046A23F4704343EA023224F0A00382
:1012300043EA01118261016210BDFEE702E008C8C5
:10124000121F08C1002AFAD170477047002001E040
:1012500001C1121F002AFBD170470000FFF7B8F848
:10126000FFF712FEFFF792FD1548FFF767FC00211C
:101270001348FFF76DFD00211148FFF71EFC104CCD
:101280004FF47A7640F2F31540F26A38B7004FF027
:101290007D09206845633046FEF7A6FF2168C1F846
:1012A00034803846FEF7A0FF206845633046FEF7DD
:1012B0009BFF2168C1F834903846FEF795FFE8E7B8
:1012C0000C000020000000000000000001020304E8
:1012D00006070809F4120008000000200C000000B6
:1012E0003C120008001300080C0000203C10000015
:1012F0004C120008000000000024F400F30100007C
:040000050800018965
:00000001FF
